{
  "address": "0x96079982fD20Ed66CDEe1A8009058a50727cEBB3",
  "abi": [
    {
      "inputs": [
        {
          "internalType": "address",
          "name": "_monadToken",
          "type": "address"
        }
      ],
      "stateMutability": "nonpayable",
      "type": "constructor"
    },
    {
      "inputs": [
        {
          "internalType": "address",
          "name": "sender",
          "type": "address"
        },
        {
          "internalType": "uint256",
          "name": "tokenId",
          "type": "uint256"
        },
        {
          "internalType": "address",
          "name": "owner",
          "type": "address"
        }
      ],
      "name": "ERC721IncorrectOwner",
      "type": "error"
    },
    {
      "inputs": [
        {
          "internalType": "address",
          "name": "operator",
          "type": "address"
        },
        {
          "internalType": "uint256",
          "name": "tokenId",
          "type": "uint256"
        }
      ],
      "name": "ERC721InsufficientApproval",
      "type": "error"
    },
    {
      "inputs": [
        {
          "internalType": "address",
          "name": "approver",
          "type": "address"
        }
      ],
      "name": "ERC721InvalidApprover",
      "type": "error"
    },
    {
      "inputs": [
        {
          "internalType": "address",
          "name": "operator",
          "type": "address"
        }
      ],
      "name": "ERC721InvalidOperator",
      "type": "error"
    },
    {
      "inputs": [
        {
          "internalType": "address",
          "name": "owner",
          "type": "address"
        }
      ],
      "name": "ERC721InvalidOwner",
      "type": "error"
    },
    {
      "inputs": [
        {
          "internalType": "address",
          "name": "receiver",
          "type": "address"
        }
      ],
      "name": "ERC721InvalidReceiver",
      "type": "error"
    },
    {
      "inputs": [
        {
          "internalType": "address",
          "name": "sender",
          "type": "address"
        }
      ],
      "name": "ERC721InvalidSender",
      "type": "error"
    },
    {
      "inputs": [
        {
          "internalType": "uint256",
          "name": "tokenId",
          "type": "uint256"
        }
      ],
      "name": "ERC721NonexistentToken",
      "type": "error"
    },
    {
      "inputs": [
        {
          "internalType": "address",
          "name": "owner",
          "type": "address"
        }
      ],
      "name": "OwnableInvalidOwner",
      "type": "error"
    },
    {
      "inputs": [
        {
          "internalType": "address",
          "name": "account",
          "type": "address"
        }
      ],
      "name": "OwnableUnauthorizedAccount",
      "type": "error"
    },
    {
      "inputs": [],
      "name": "ReentrancyGuardReentrantCall",
      "type": "error"
    },
    {
      "anonymous": false,
      "inputs": [
        {
          "indexed": true,
          "internalType": "address",
          "name": "owner",
          "type": "address"
        },
        {
          "indexed": true,
          "internalType": "address",
          "name": "approved",
          "type": "address"
        },
        {
          "indexed": true,
          "internalType": "uint256",
          "name": "tokenId",
          "type": "uint256"
        }
      ],
      "name": "Approval",
      "type": "event"
    },
    {
      "anonymous": false,
      "inputs": [
        {
          "indexed": true,
          "internalType": "address",
          "name": "owner",
          "type": "address"
        },
        {
          "indexed": true,
          "internalType": "address",
          "name": "operator",
          "type": "address"
        },
        {
          "indexed": false,
          "internalType": "bool",
          "name": "approved",
          "type": "bool"
        }
      ],
      "name": "ApprovalForAll",
      "type": "event"
    },
    {
      "anonymous": false,
      "inputs": [
        {
          "indexed": false,
          "internalType": "uint256",
          "name": "_fromTokenId",
          "type": "uint256"
        },
        {
          "indexed": false,
          "internalType": "uint256",
          "name": "_toTokenId",
          "type": "uint256"
        }
      ],
      "name": "BatchMetadataUpdate",
      "type": "event"
    },
    {
      "anonymous": false,
      "inputs": [
        {
          "indexed": false,
          "internalType": "uint256",
          "name": "_tokenId",
          "type": "uint256"
        }
      ],
      "name": "MetadataUpdate",
      "type": "event"
    },
    {
      "anonymous": false,
      "inputs": [
        {
          "indexed": false,
          "internalType": "uint256",
          "name": "newMinimum",
          "type": "uint256"
        }
      ],
      "name": "MinimumHoldingUpdated",
      "type": "event"
    },
    {
      "anonymous": false,
      "inputs": [
        {
          "indexed": true,
          "internalType": "address",
          "name": "recipient",
          "type": "address"
        },
        {
          "indexed": false,
          "internalType": "uint256",
          "name": "tokenId",
          "type": "uint256"
        }
      ],
      "name": "NFTMinted",
      "type": "event"
    },
    {
      "anonymous": false,
      "inputs": [
        {
          "indexed": true,
          "internalType": "address",
          "name": "previousOwner",
          "type": "address"
        },
        {
          "indexed": true,
          "internalType": "address",
          "name": "newOwner",
          "type": "address"
        }
      ],
      "name": "OwnershipTransferred",
      "type": "event"
    },
    {
      "anonymous": false,
      "inputs": [
        {
          "indexed": true,
          "internalType": "uint256",
          "name": "postId",
          "type": "uint256"
        },
        {
          "indexed": false,
          "internalType": "string",
          "name": "tweetId",
          "type": "string"
        },
        {
          "indexed": true,
          "internalType": "address",
          "name": "creator",
          "type": "address"
        }
      ],
      "name": "PostVerified",
      "type": "event"
    },
    {
      "anonymous": false,
      "inputs": [
        {
          "indexed": true,
          "internalType": "uint256",
          "name": "postId",
          "type": "uint256"
        },
        {
          "indexed": true,
          "internalType": "address",
          "name": "tipper",
          "type": "address"
        },
        {
          "indexed": false,
          "internalType": "uint256",
          "name": "amount",
          "type": "uint256"
        }
      ],
      "name": "TipSent",
      "type": "event"
    },
    {
      "anonymous": false,
      "inputs": [
        {
          "indexed": true,
          "internalType": "address",
          "name": "from",
          "type": "address"
        },
        {
          "indexed": true,
          "internalType": "address",
          "name": "to",
          "type": "address"
        },
        {
          "indexed": true,
          "internalType": "uint256",
          "name": "tokenId",
          "type": "uint256"
        }
      ],
      "name": "Transfer",
      "type": "event"
    },
    {
      "anonymous": false,
      "inputs": [
        {
          "indexed": true,
          "internalType": "uint256",
          "name": "postId",
          "type": "uint256"
        },
        {
          "indexed": true,
          "internalType": "address",
          "name": "voter",
          "type": "address"
        },
        {
          "indexed": false,
          "internalType": "bool",
          "name": "isLit",
          "type": "bool"
        },
        {
          "indexed": false,
          "internalType": "uint256",
          "name": "points",
          "type": "uint256"
        },
        {
          "indexed": false,
          "internalType": "bool",
          "name": "nftAwarded",
          "type": "bool"
        }
      ],
      "name": "VoteCast",
      "type": "event"
    },
    {
      "inputs": [],
      "name": "NFT_DROP_CHANCE",
      "outputs": [
        {
          "internalType": "uint256",
          "name": "",
          "type": "uint256"
        }
      ],
      "stateMutability": "view",
      "type": "function"
    },
    {
      "inputs": [],
      "name": "POINTS_PER_VOTE",
      "outputs": [
        {
          "internalType": "uint256",
          "name": "",
          "type": "uint256"
        }
      ],
      "stateMutability": "view",
      "type": "function"
    },
    {
      "inputs": [],
      "name": "TIP_CREATOR_PERCENTAGE",
      "outputs": [
        {
          "internalType": "uint256",
          "name": "",
          "type": "uint256"
        }
      ],
      "stateMutability": "view",
      "type": "function"
    },
    {
      "inputs": [
        {
          "internalType": "address",
          "name": "to",
          "type": "address"
        },
        {
          "internalType": "uint256",
          "name": "tokenId",
          "type": "uint256"
        }
      ],
      "name": "approve",
      "outputs": [],
      "stateMutability": "nonpayable",
      "type": "function"
    },
    {
      "inputs": [
        {
          "internalType": "address",
          "name": "owner",
          "type": "address"
        }
      ],
      "name": "balanceOf",
      "outputs": [
        {
          "internalType": "uint256",
          "name": "",
          "type": "uint256"
        }
      ],
      "stateMutability": "view",
      "type": "function"
    },
    {
      "inputs": [
        {
          "internalType": "address",
          "name": "",
          "type": "address"
        },
        {
          "internalType": "uint256",
          "name": "",
          "type": "uint256"
        }
      ],
      "name": "creatorPosts",
      "outputs": [
        {
          "internalType": "uint256",
          "name": "",
          "type": "uint256"
        }
      ],
      "stateMutability": "view",
      "type": "function"
    },
    {
      "inputs": [
        {
          "internalType": "uint256",
          "name": "_postId",
          "type": "uint256"
        }
      ],
      "name": "deactivatePost",
      "outputs": [],
      "stateMutability": "nonpayable",
      "type": "function"
    },
    {
      "inputs": [
        {
          "internalType": "uint256",
          "name": "tokenId",
          "type": "uint256"
        }
      ],
      "name": "getApproved",
      "outputs": [
        {
          "internalType": "address",
          "name": "",
          "type": "address"
        }
      ],
      "stateMutability": "view",
      "type": "function"
    },
    {
      "inputs": [
        {
          "internalType": "address",
          "name": "_creator",
          "type": "address"
        }
      ],
      "name": "getCreatorPosts",
      "outputs": [
        {
          "internalType": "uint256[]",
          "name": "",
          "type": "uint256[]"
        }
      ],
      "stateMutability": "view",
      "type": "function"
    },
    {
      "inputs": [
        {
          "internalType": "uint256",
          "name": "_postId",
          "type": "uint256"
        }
      ],
      "name": "getPost",
      "outputs": [
        {
          "components": [
            {
              "internalType": "string",
              "name": "tweetId",
              "type": "string"
            },
            {
              "internalType": "address",
              "name": "creator",
              "type": "address"
            },
            {
              "internalType": "string",
              "name": "content",
              "type": "string"
            },
            {
              "internalType": "uint256",
              "name": "timestamp",
              "type": "uint256"
            },
            {
              "internalType": "uint256",
              "name": "litCount",
              "type": "uint256"
            },
            {
              "internalType": "uint256",
              "name": "shitCount",
              "type": "uint256"
            },
            {
              "internalType": "uint256",
              "name": "totalTips",
              "type": "uint256"
            },
            {
              "internalType": "bool",
              "name": "verified",
              "type": "bool"
            },
            {
              "internalType": "bool",
              "name": "active",
              "type": "bool"
            }
          ],
          "internalType": "struct Sonad.TwitterPost",
          "name": "",
          "type": "tuple"
        }
      ],
      "stateMutability": "view",
      "type": "function"
    },
    {
      "inputs": [],
      "name": "getTotalPosts",
      "outputs": [
        {
          "internalType": "uint256",
          "name": "",
          "type": "uint256"
        }
      ],
      "stateMutability": "view",
      "type": "function"
    },
    {
      "inputs": [
        {
          "internalType": "address",
          "name": "_voter",
          "type": "address"
        }
      ],
      "name": "getVoterRewards",
      "outputs": [
        {
          "internalType": "uint256",
          "name": "points",
          "type": "uint256"
        },
        {
          "internalType": "uint256",
          "name": "nftCount",
          "type": "uint256"
        }
      ],
      "stateMutability": "view",
      "type": "function"
    },
    {
      "inputs": [
        {
          "internalType": "address",
          "name": "_user",
          "type": "address"
        },
        {
          "internalType": "uint256",
          "name": "_postId",
          "type": "uint256"
        }
      ],
      "name": "hasUserVoted",
      "outputs": [
        {
          "internalType": "bool",
          "name": "",
          "type": "bool"
        }
      ],
      "stateMutability": "view",
      "type": "function"
    },
    {
      "inputs": [
        {
          "internalType": "address",
          "name": "",
          "type": "address"
        },
        {
          "internalType": "uint256",
          "name": "",
          "type": "uint256"
        }
      ],
      "name": "hasVoted",
      "outputs": [
        {
          "internalType": "bool",
          "name": "",
          "type": "bool"
        }
      ],
      "stateMutability": "view",
      "type": "function"
    },
    {
      "inputs": [
        {
          "internalType": "address",
          "name": "owner",
          "type": "address"
        },
        {
          "internalType": "address",
          "name": "operator",
          "type": "address"
        }
      ],
      "name": "isApprovedForAll",
      "outputs": [
        {
          "internalType": "bool",
          "name": "",
          "type": "bool"
        }
      ],
      "stateMutability": "view",
      "type": "function"
    },
    {
      "inputs": [],
      "name": "minimumMonadHolding",
      "outputs": [
        {
          "internalType": "uint256",
          "name": "",
          "type": "uint256"
        }
      ],
      "stateMutability": "view",
      "type": "function"
    },
    {
      "inputs": [],
      "name": "monadToken",
      "outputs": [
        {
          "internalType": "contract IERC20",
          "name": "",
          "type": "address"
        }
      ],
      "stateMutability": "view",
      "type": "function"
    },
    {
      "inputs": [],
      "name": "name",
      "outputs": [
        {
          "internalType": "string",
          "name": "",
          "type": "string"
        }
      ],
      "stateMutability": "view",
      "type": "function"
    },
    {
      "inputs": [],
      "name": "nextTokenId",
      "outputs": [
        {
          "internalType": "uint256",
          "name": "",
          "type": "uint256"
        }
      ],
      "stateMutability": "view",
      "type": "function"
    },
    {
      "inputs": [],
      "name": "owner",
      "outputs": [
        {
          "internalType": "address",
          "name": "",
          "type": "address"
        }
      ],
      "stateMutability": "view",
      "type": "function"
    },
    {
      "inputs": [
        {
          "internalType": "uint256",
          "name": "tokenId",
          "type": "uint256"
        }
      ],
      "name": "ownerOf",
      "outputs": [
        {
          "internalType": "address",
          "name": "",
          "type": "address"
        }
      ],
      "stateMutability": "view",
      "type": "function"
    },
    {
      "inputs": [],
      "name": "postIdCounter",
      "outputs": [
        {
          "internalType": "uint256",
          "name": "",
          "type": "uint256"
        }
      ],
      "stateMutability": "view",
      "type": "function"
    },
    {
      "inputs": [
        {
          "internalType": "uint256",
          "name": "",
          "type": "uint256"
        }
      ],
      "name": "posts",
      "outputs": [
        {
          "internalType": "string",
          "name": "tweetId",
          "type": "string"
        },
        {
          "internalType": "address",
          "name": "creator",
          "type": "address"
        },
        {
          "internalType": "string",
          "name": "content",
          "type": "string"
        },
        {
          "internalType": "uint256",
          "name": "timestamp",
          "type": "uint256"
        },
        {
          "internalType": "uint256",
          "name": "litCount",
          "type": "uint256"
        },
        {
          "internalType": "uint256",
          "name": "shitCount",
          "type": "uint256"
        },
        {
          "internalType": "uint256",
          "name": "totalTips",
          "type": "uint256"
        },
        {
          "internalType": "bool",
          "name": "verified",
          "type": "bool"
        },
        {
          "internalType": "bool",
          "name": "active",
          "type": "bool"
        }
      ],
      "stateMutability": "view",
      "type": "function"
    },
    {
      "inputs": [],
      "name": "renounceOwnership",
      "outputs": [],
      "stateMutability": "nonpayable",
      "type": "function"
    },
    {
      "inputs": [
        {
          "internalType": "address",
          "name": "from",
          "type": "address"
        },
        {
          "internalType": "address",
          "name": "to",
          "type": "address"
        },
        {
          "internalType": "uint256",
          "name": "tokenId",
          "type": "uint256"
        }
      ],
      "name": "safeTransferFrom",
      "outputs": [],
      "stateMutability": "nonpayable",
      "type": "function"
    },
    {
      "inputs": [
        {
          "internalType": "address",
          "name": "from",
          "type": "address"
        },
        {
          "internalType": "address",
          "name": "to",
          "type": "address"
        },
        {
          "internalType": "uint256",
          "name": "tokenId",
          "type": "uint256"
        },
        {
          "internalType": "bytes",
          "name": "data",
          "type": "bytes"
        }
      ],
      "name": "safeTransferFrom",
      "outputs": [],
      "stateMutability": "nonpayable",
      "type": "function"
    },
    {
      "inputs": [
        {
          "internalType": "address",
          "name": "operator",
          "type": "address"
        },
        {
          "internalType": "bool",
          "name": "approved",
          "type": "bool"
        }
      ],
      "name": "setApprovalForAll",
      "outputs": [],
      "stateMutability": "nonpayable",
      "type": "function"
    },
    {
      "inputs": [
        {
          "internalType": "address",
          "name": "_newMonadToken",
          "type": "address"
        }
      ],
      "name": "setMonadToken",
      "outputs": [],
      "stateMutability": "nonpayable",
      "type": "function"
    },
    {
      "inputs": [
        {
          "internalType": "bytes4",
          "name": "interfaceId",
          "type": "bytes4"
        }
      ],
      "name": "supportsInterface",
      "outputs": [
        {
          "internalType": "bool",
          "name": "",
          "type": "bool"
        }
      ],
      "stateMutability": "view",
      "type": "function"
    },
    {
      "inputs": [],
      "name": "symbol",
      "outputs": [
        {
          "internalType": "string",
          "name": "",
          "type": "string"
        }
      ],
      "stateMutability": "view",
      "type": "function"
    },
    {
      "inputs": [
        {
          "internalType": "uint256",
          "name": "_postId",
          "type": "uint256"
        }
      ],
      "name": "tipCreator",
      "outputs": [],
      "stateMutability": "payable",
      "type": "function"
    },
    {
      "inputs": [
        {
          "internalType": "uint256",
          "name": "tokenId",
          "type": "uint256"
        }
      ],
      "name": "tokenURI",
      "outputs": [
        {
          "internalType": "string",
          "name": "",
          "type": "string"
        }
      ],
      "stateMutability": "view",
      "type": "function"
    },
    {
      "inputs": [
        {
          "internalType": "address",
          "name": "from",
          "type": "address"
        },
        {
          "internalType": "address",
          "name": "to",
          "type": "address"
        },
        {
          "internalType": "uint256",
          "name": "tokenId",
          "type": "uint256"
        }
      ],
      "name": "transferFrom",
      "outputs": [],
      "stateMutability": "nonpayable",
      "type": "function"
    },
    {
      "inputs": [
        {
          "internalType": "address",
          "name": "newOwner",
          "type": "address"
        }
      ],
      "name": "transferOwnership",
      "outputs": [],
      "stateMutability": "nonpayable",
      "type": "function"
    },
    {
      "inputs": [
        {
          "internalType": "string",
          "name": "",
          "type": "string"
        }
      ],
      "name": "tweetIdToPostId",
      "outputs": [
        {
          "internalType": "uint256",
          "name": "",
          "type": "uint256"
        }
      ],
      "stateMutability": "view",
      "type": "function"
    },
    {
      "inputs": [
        {
          "internalType": "uint256",
          "name": "_newMinimum",
          "type": "uint256"
        }
      ],
      "name": "updateMinimumMonadHolding",
      "outputs": [],
      "stateMutability": "nonpayable",
      "type": "function"
    },
    {
      "inputs": [
        {
          "internalType": "string",
          "name": "_tweetId",
          "type": "string"
        },
        {
          "internalType": "address",
          "name": "_creator",
          "type": "address"
        },
        {
          "internalType": "string",
          "name": "_content",
          "type": "string"
        }
      ],
      "name": "verifyAndRegisterPost",
      "outputs": [
        {
          "internalType": "uint256",
          "name": "",
          "type": "uint256"
        }
      ],
      "stateMutability": "nonpayable",
      "type": "function"
    },
    {
      "inputs": [
        {
          "internalType": "uint256",
          "name": "_postId",
          "type": "uint256"
        },
        {
          "internalType": "bool",
          "name": "_isLit",
          "type": "bool"
        }
      ],
      "name": "vote",
      "outputs": [],
      "stateMutability": "nonpayable",
      "type": "function"
    },
    {
      "inputs": [
        {
          "internalType": "address",
          "name": "",
          "type": "address"
        }
      ],
      "name": "voterRewards",
      "outputs": [
        {
          "internalType": "uint256",
          "name": "points",
          "type": "uint256"
        },
        {
          "internalType": "uint256",
          "name": "nftCount",
          "type": "uint256"
        },
        {
          "internalType": "bool",
          "name": "hasVoted",
          "type": "bool"
        }
      ],
      "stateMutability": "view",
      "type": "function"
    },
    {
      "inputs": [],
      "name": "withdrawProtocolFees",
      "outputs": [],
      "stateMutability": "nonpayable",
      "type": "function"
    },
    {
      "stateMutability": "payable",
      "type": "receive"
    }
  ],
  "transactionHash": "0xc5ba750f8b39f8c520e0da325e75bfad7cfe525ddca6c278013d5ebbd1f61558",
  "args": [
    "0x95fCB10fcD03208d3aa468db53433cb23167002D"
  ],
  "numDeployments": 1,
  "solcInputHash": "b182d877fdeb40ebf5c7aa567a7f7f83",
  "bytecode": "0x6080604052670de0b6b3a7640000600a556001600b556001600c553480156200002757600080fd5b5060405162002f7338038062002f738339810160408190526200004a9162000166565b336040518060400160405280600981526020016814dbdb98590813919560ba1b8152506040518060400160405280600581526020016414d3d3905160da1b81525081600090816200009c91906200023d565b506001620000ab82826200023d565b5050506001600160a01b038116620000dd57604051631e4fbdf760e01b81526000600482015260240160405180910390fd5b620000e88162000114565b506001600855600980546001600160a01b0319166001600160a01b039290921691909117905562000309565b600780546001600160a01b038381166001600160a01b0319831681179093556040519116919082907f8be0079c531659141344cd1fd0a4f28419497f9722a3daafe3b4186f6b6457e090600090a35050565b6000602082840312156200017957600080fd5b81516001600160a01b03811681146200019157600080fd5b9392505050565b634e487b7160e01b600052604160045260246000fd5b600181811c90821680620001c357607f821691505b602082108103620001e457634e487b7160e01b600052602260045260246000fd5b50919050565b601f8211156200023857600081815260208120601f850160051c81016020861015620002135750805b601f850160051c820191505b8181101562000234578281556001016200021f565b5050505b505050565b81516001600160401b0381111562000259576200025962000198565b62000271816200026a8454620001ae565b84620001ea565b602080601f831160018114620002a95760008415620002905750858301515b600019600386901b1c1916600185901b17855562000234565b600085815260208120601f198616915b82811015620002da57888601518255948401946001909101908401620002b9565b5085821015620002f95787850151600019600388901b60f8161c191681555b5050505050600190811b01905550565b612c5a80620003196000396000f3fe60806040526004361061023f5760003560e01c806375794a3c1161012e578063c78fe7b9116100ab578063d46f96ed1161006f578063d46f96ed14610735578063e985e9c51461077b578063f08981fa1461079b578063f1b19e92146107b0578063f2fde38b1461080c57600080fd5b8063c78fe7b9146106a0578063c87b56dd146106b5578063c9d27afe146106d5578063ce491748146106f5578063d11bb7691461071557600080fd5b8063a22cb465116100f2578063a22cb465146105ff578063a4be78b41461061f578063b88d4fde14610635578063b97be95e14610655578063bec4e8131461066857600080fd5b806375794a3c146105815780638795cccb1461059757806387fe4c86146105ac5780638da5cb5b146105cc57806395d89b41146105ea57600080fd5b806342842e0e116101bc5780636a571859116101805780636a571859146105015780636adc5b9c1461051757806370a082311461053757806370eb543714610557578063715018a61461056c57600080fd5b806342842e0e1461045f5780634ddaaca01461047f57806353850a98146104ac5780635fe226b4146104cc5780636352211e146104e157600080fd5b80630b1e7f83116102035780630b1e7f831461032a5780631060f7721461035f57806323b872dd146103d757806340731c24146103f7578063425458251461042457600080fd5b806301ffc9a71461024b57806303e61b5f1461028057806306fdde03146102ae578063081812fc146102d0578063095ea7b31461030857600080fd5b3661024657005b600080fd5b34801561025757600080fd5b5061026b6102663660046123e2565b61082c565b60405190151581526020015b60405180910390f35b34801561028c57600080fd5b506102a061029b36600461241b565b61083d565b604051908152602001610277565b3480156102ba57600080fd5b506102c361086e565b6040516102779190612495565b3480156102dc57600080fd5b506102f06102eb3660046124a8565b610900565b6040516001600160a01b039091168152602001610277565b34801561031457600080fd5b5061032861032336600461241b565b610929565b005b34801561033657600080fd5b5061034a6103453660046124a8565b610938565b604051610277999897969594939291906124c1565b34801561036b57600080fd5b506103c261037a366004612531565b6001600160a01b03166000908152600f602090815260409182902082516060810184528154808252600183015493820184905260029092015460ff1615159301929092529091565b60408051928352602083019190915201610277565b3480156103e357600080fd5b506103286103f236600461254c565b610aa4565b34801561040357600080fd5b506104176104123660046124a8565b610b34565b6040516102779190612588565b34801561043057600080fd5b5061026b61043f36600461241b565b600e60209081526000928352604080842090915290825290205460ff1681565b34801561046b57600080fd5b5061032861047a36600461254c565b610d5f565b34801561048b57600080fd5b5061049f61049a366004612531565b610d7f565b6040516102779190612631565b3480156104b857600080fd5b506103286104c73660046124a8565b610deb565b3480156104d857600080fd5b506102a0610e2e565b3480156104ed57600080fd5b506102f06104fc3660046124a8565b610e44565b34801561050d57600080fd5b506102a0600c5481565b34801561052357600080fd5b506103286105323660046124a8565b610e4f565b34801561054357600080fd5b506102a0610552366004612531565b610ed8565b34801561056357600080fd5b506102a0605a81565b34801561057857600080fd5b50610328610f20565b34801561058d57600080fd5b506102a0600b5481565b3480156105a357600080fd5b50610328610f34565b3480156105b857600080fd5b506009546102f0906001600160a01b031681565b3480156105d857600080fd5b506007546001600160a01b03166102f0565b3480156105f657600080fd5b506102c3611034565b34801561060b57600080fd5b5061032861061a366004612685565b611043565b34801561062b57600080fd5b506102a0600a5481565b34801561064157600080fd5b50610328610650366004612744565b61104e565b6103286106633660046124a8565b611065565b34801561067457600080fd5b506102a06106833660046127e0565b805160208183018101805160108252928201919093012091525481565b3480156106ac57600080fd5b506102a0606481565b3480156106c157600080fd5b506102c36106d03660046124a8565b611264565b3480156106e157600080fd5b506103286106f0366004612815565b61126f565b34801561070157600080fd5b506102a0610710366004612838565b61153a565b34801561072157600080fd5b50610328610730366004612531565b611810565b34801561074157600080fd5b5061026b61075036600461241b565b6001600160a01b03919091166000908152600e60209081526040808320938352929052205460ff1690565b34801561078757600080fd5b5061026b6107963660046128ac565b611888565b3480156107a757600080fd5b506102a0600a81565b3480156107bc57600080fd5b506107ef6107cb366004612531565b600f6020526000908152604090208054600182015460029092015490919060ff1683565b604080519384526020840192909252151590820152606001610277565b34801561081857600080fd5b50610328610827366004612531565b6118b6565b6000610837826118f4565b92915050565b6011602052816000526040600020818154811061085957600080fd5b90600052602060002001600091509150505481565b60606000805461087d906128d6565b80601f01602080910402602001604051908101604052809291908181526020018280546108a9906128d6565b80156108f65780601f106108cb576101008083540402835291602001916108f6565b820191906000526020600020905b8154815290600101906020018083116108d957829003601f168201915b5050505050905090565b600061090b82611919565b506000828152600460205260409020546001600160a01b0316610837565b610934828233611952565b5050565b600d60205260009081526040902080548190610953906128d6565b80601f016020809104026020016040519081016040528092919081815260200182805461097f906128d6565b80156109cc5780601f106109a1576101008083540402835291602001916109cc565b820191906000526020600020905b8154815290600101906020018083116109af57829003601f168201915b505050600184015460028501805494956001600160a01b039092169491935091506109f6906128d6565b80601f0160208091040260200160405190810160405280929190818152602001828054610a22906128d6565b8015610a6f5780601f10610a4457610100808354040283529160200191610a6f565b820191906000526020600020905b815481529060010190602001808311610a5257829003601f168201915b505050600384015460048501546005860154600687015460079097015495969295919450925060ff8082169161010090041689565b6001600160a01b038216610ad357604051633250574960e11b8152600060048201526024015b60405180910390fd5b6000610ae083833361195f565b9050836001600160a01b0316816001600160a01b031614610b2e576040516364283d7b60e01b81526001600160a01b0380861660048301526024820184905282166044820152606401610aca565b50505050565b610b906040518061012001604052806060815260200160006001600160a01b0316815260200160608152602001600081526020016000815260200160008152602001600081526020016000151581526020016000151581525090565b600082118015610ba15750600c5482105b610bbd5760405162461bcd60e51b8152600401610aca90612910565b6000828152600d60205260409081902081516101208101909252805482908290610be6906128d6565b80601f0160208091040260200160405190810160405280929190818152602001828054610c12906128d6565b8015610c5f5780601f10610c3457610100808354040283529160200191610c5f565b820191906000526020600020905b815481529060010190602001808311610c4257829003601f168201915b505050918352505060018201546001600160a01b03166020820152600282018054604090920191610c8f906128d6565b80601f0160208091040260200160405190810160405280929190818152602001828054610cbb906128d6565b8015610d085780601f10610cdd57610100808354040283529160200191610d08565b820191906000526020600020905b815481529060010190602001808311610ceb57829003601f168201915b50505091835250506003820154602082015260048201546040820152600582015460608201526006820154608082015260079091015460ff808216151560a084015261010090910416151560c09091015292915050565b610d7a8383836040518060200160405280600081525061104e565b505050565b6001600160a01b038116600090815260116020908152604091829020805483518184028101840190945280845260609392830182828015610ddf57602002820191906000526020600020905b815481526020019060010190808311610dcb575b50505050509050919050565b610df3611a58565b600a8190556040518181527fbe6dc2ac314a27bc9af2d8667a69f4c4718514469ff42e298069077b8b85bdf59060200160405180910390a150565b60006001600c54610e3f9190612953565b905090565b600061083782611919565b610e57611a58565b80600081118015610e695750600c5481105b610e855760405162461bcd60e51b8152600401610aca90612910565b6000818152600d6020526040902060070154610100900460ff16610ebb5760405162461bcd60e51b8152600401610aca90612966565b506000908152600d60205260409020600701805461ff0019169055565b60006001600160a01b038216610f04576040516322718ad960e21b815260006004820152602401610aca565b506001600160a01b031660009081526003602052604090205490565b610f28611a58565b610f326000611a85565b565b610f3c611a58565b4780610f805760405162461bcd60e51b81526020600482015260136024820152724e6f206665657320746f20776974686472617760681b6044820152606401610aca565b6000610f946007546001600160a01b031690565b6001600160a01b03168260405160006040518083038185875af1925050503d8060008114610fde576040519150601f19603f3d011682016040523d82523d6000602084013e610fe3565b606091505b50509050806109345760405162461bcd60e51b815260206004820152601760248201527f4661696c656420746f20776974686472617720666565730000000000000000006044820152606401610aca565b60606001805461087d906128d6565b610934338383611ad7565b611059848484610aa4565b610b2e84848484611b76565b806000811180156110775750600c5481105b6110935760405162461bcd60e51b8152600401610aca90612910565b6000818152600d6020526040902060070154610100900460ff166110c95760405162461bcd60e51b8152600401610aca90612966565b6110d1611c9f565b6000341161112b5760405162461bcd60e51b815260206004820152602160248201527f54697020616d6f756e74206d7573742062652067726561746572207468616e206044820152600360fc1b6064820152608401610aca565b6000828152600d60205260408120906064611147605a34612992565b61115191906129bf565b9050600061115f8234612953565b90503483600601600082825461117591906129d3565b909155505060018301546040516000916001600160a01b03169084908381818185875af1925050503d80600081146111c9576040519150601f19603f3d011682016040523d82523d6000602084013e6111ce565b606091505b505090508061121f5760405162461bcd60e51b815260206004820152601d60248201527f4661696c656420746f2073656e642074697020746f2063726561746f720000006044820152606401610aca565b604051348152339087907faa7ac8ddacc291d916d6cf40358c9fc2d5d375d14f36e3ffb346a8eb30a162099060200160405180910390a3505050506109346001600855565b606061083782611cc9565b600a546009546040516370a0823160e01b81523360048201526001600160a01b03909116906370a0823190602401602060405180830381865afa1580156112ba573d6000803e3d6000fd5b505050506040513d601f19601f820116820180604052508101906112de91906129e6565b10156113365760405162461bcd60e51b815260206004820152602160248201527f496e73756666696369656e74204d4f4e414420746f6b656e7320746f20766f746044820152606560f81b6064820152608401610aca565b816000811180156113485750600c5481105b6113645760405162461bcd60e51b8152600401610aca90612910565b6000818152600d6020526040902060070154610100900460ff1661139a5760405162461bcd60e51b8152600401610aca90612966565b6113a2611c9f565b336000908152600e6020908152604080832086845290915290205460ff161561140d5760405162461bcd60e51b815260206004820152601a60248201527f416c726561647920766f746564206f6e207468697320706f73740000000000006044820152606401610aca565b336000908152600e602090815260408083208684529091529020805460ff19166001179055811561145f576000838152600d60205260408120600401805491611455836129ff565b9190505550611482565b6000838152600d6020526040812060050180549161147c836129ff565b91905055505b336000908152600f602052604081208054600a92906114a29084906129d3565b90915550600090506114b2611dda565b156114e8576114c033611e4a565b336000908152600f602052604081206001018054916114de836129ff565b9190505550600190505b604080518415158152600a6020820152821515818301529051339186917f2e2287d122fc520676d0b2a6cdf4c1b4b0a21e714b7644e4d9ce85d8854e37909181900360600190a350610d7a6001600855565b6000611544611a58565b60008451116115955760405162461bcd60e51b815260206004820152601860248201527f54776565742049442063616e6e6f7420626520656d70747900000000000000006044820152606401610aca565b6001600160a01b0383166115eb5760405162461bcd60e51b815260206004820152601760248201527f496e76616c69642063726561746f7220616464726573730000000000000000006044820152606401610aca565b6010846040516115fb9190612a18565b9081526020016040518091039020546000146116595760405162461bcd60e51b815260206004820152601860248201527f547765657420616c7265616479207265676973746572656400000000000000006044820152606401610aca565b600c80546000918261166a836129ff565b919050559050604051806101200160405280868152602001856001600160a01b0316815260200184815260200142815260200160008152602001600081526020016000815260200160011515815260200160011515815250600d600083815260200190815260200160002060008201518160000190816116ea9190612a82565b5060208201516001820180546001600160a01b0319166001600160a01b03909216919091179055604082015160028201906117259082612a82565b50606082015160038201556080820151600482015560a0820151600582015560c0820151600682015560e0820151600790910180546101009384015161ffff1990911692151561ff001916929092179115159092021790556040518190601090611790908890612a18565b908152604080519182900360209081018320939093556001600160a01b03871660008181526011855291822080546001810182559083529390912090920183905582907f741f2d9eb6b47a015e7ff467af60cbaedd1bc22a1e7838a29888fc1d034aecc190611800908990612495565b60405180910390a3949350505050565b611818611a58565b6001600160a01b0381166118665760405162461bcd60e51b8152602060048201526015602482015274496e76616c696420746f6b656e206164647265737360581b6044820152606401610aca565b600980546001600160a01b0319166001600160a01b0392909216919091179055565b6001600160a01b03918216600090815260056020908152604080832093909416825291909152205460ff1690565b6118be611a58565b6001600160a01b0381166118e857604051631e4fbdf760e01b815260006004820152602401610aca565b6118f181611a85565b50565b60006001600160e01b03198216632483248360e11b1480610837575061083782611ee9565b6000818152600260205260408120546001600160a01b03168061083757604051637e27328960e01b815260048101849052602401610aca565b610d7a8383836001611f39565b6000828152600260205260408120546001600160a01b039081169083161561198c5761198c81848661203f565b6001600160a01b038116156119ca576119a9600085600080611f39565b6001600160a01b038116600090815260036020526040902080546000190190555b6001600160a01b038516156119f9576001600160a01b0385166000908152600360205260409020805460010190555b60008481526002602052604080822080546001600160a01b0319166001600160a01b0389811691821790925591518793918516917fddf252ad1be2c89b69c2b068fc378daa952ba7f163c4a11628f55a4df523b3ef91a4949350505050565b6007546001600160a01b03163314610f325760405163118cdaa760e01b8152336004820152602401610aca565b600780546001600160a01b038381166001600160a01b0319831681179093556040519116919082907f8be0079c531659141344cd1fd0a4f28419497f9722a3daafe3b4186f6b6457e090600090a35050565b6001600160a01b038216611b0957604051630b61174360e31b81526001600160a01b0383166004820152602401610aca565b6001600160a01b03838116600081815260056020908152604080832094871680845294825291829020805460ff191686151590811790915591519182527f17307eab39ab6107e8899845ad3d59bd9653f200f220920489ca2b5937696c31910160405180910390a3505050565b6001600160a01b0383163b15610b2e57604051630a85bd0160e11b81526001600160a01b0384169063150b7a0290611bb8903390889087908790600401612b42565b6020604051808303816000875af1925050508015611bf3575060408051601f3d908101601f19168201909252611bf091810190612b7f565b60015b611c5c573d808015611c21576040519150601f19603f3d011682016040523d82523d6000602084013e611c26565b606091505b508051600003611c5457604051633250574960e11b81526001600160a01b0385166004820152602401610aca565b805181602001fd5b6001600160e01b03198116630a85bd0160e11b14611c9857604051633250574960e11b81526001600160a01b0385166004820152602401610aca565b5050505050565b600260085403611cc257604051633ee5aeb560e01b815260040160405180910390fd5b6002600855565b6060611cd482611919565b5060008281526006602052604081208054611cee906128d6565b80601f0160208091040260200160405190810160405280929190818152602001828054611d1a906128d6565b8015611d675780601f10611d3c57610100808354040283529160200191611d67565b820191906000526020600020905b815481529060010190602001808311611d4a57829003601f168201915b505050505090506000611d8560408051602081019091526000815290565b90508051600003611d97575092915050565b815115611dc9578082604051602001611db1929190612b9c565b60405160208183030381529060405292505050919050565b611dd2846120a3565b949350505050565b6000806064424433600c54604051602001611e209493929190938452602084019290925260601b6bffffffffffffffffffffffff19166040830152605482015260740190565b6040516020818303038152906040528051906020012060001c611e439190612bcb565b1592915050565b600b805460009182611e5b836129ff565b919050559050611e6b8282612118565b6000611e7682612132565b604051602001611e869190612bdf565b6040516020818303038152906040529050611ea182826121c5565b826001600160a01b03167f4cc0a9c4a99ddc700de1af2c9f916a7cbfdb71f14801ccff94061ad1ef8a804083604051611edc91815260200190565b60405180910390a2505050565b60006001600160e01b031982166380ac58cd60e01b1480611f1a57506001600160e01b03198216635b5e139f60e01b145b8061083757506301ffc9a760e01b6001600160e01b0319831614610837565b8080611f4d57506001600160a01b03821615155b1561200f576000611f5d84611919565b90506001600160a01b03831615801590611f895750826001600160a01b0316816001600160a01b031614155b8015611f9c5750611f9a8184611888565b155b15611fc55760405163a9fbf51f60e01b81526001600160a01b0384166004820152602401610aca565b811561200d5783856001600160a01b0316826001600160a01b03167f8c5be1e5ebec7d5bd14f71427d1e84f3dd0314c0f7b2291e5b200ac8c7c3b92560405160405180910390a45b505b5050600090815260046020526040902080546001600160a01b0319166001600160a01b0392909216919091179055565b61204a838383612215565b610d7a576001600160a01b03831661207857604051637e27328960e01b815260048101829052602401610aca565b60405163177e802f60e01b81526001600160a01b038316600482015260248101829052604401610aca565b60606120ae82611919565b5060006120c660408051602081019091526000815290565b905060008151116120e65760405180602001604052806000815250612111565b806120f084612132565b604051602001612101929190612b9c565b6040516020818303038152906040525b9392505050565b610934828260405180602001604052806000815250612278565b6060600061213f8361228f565b600101905060008167ffffffffffffffff81111561215f5761215f6126b8565b6040519080825280601f01601f191660200182016040528015612189576020820181803683370190505b5090508181016020015b600019016f181899199a1a9b1b9c1cb0b131b232b360811b600a86061a8153600a850494508461219357509392505050565b60008281526006602052604090206121dd8282612a82565b506040518281527ff8e1a15aba9398e019f0b49df1a4fde98ee17ae345cb5f6b5e2c27f5033e8ce79060200160405180910390a15050565b60006001600160a01b03831615801590611dd25750826001600160a01b0316846001600160a01b0316148061224f575061224f8484611888565b80611dd25750506000908152600460205260409020546001600160a01b03908116911614919050565b6122828383612367565b610d7a6000848484611b76565b60008072184f03e93ff9f4daa797ed6e38ed64bf6a1f0160401b83106122ce5772184f03e93ff9f4daa797ed6e38ed64bf6a1f0160401b830492506040015b6d04ee2d6d415b85acef810000000083106122fa576d04ee2d6d415b85acef8100000000830492506020015b662386f26fc10000831061231857662386f26fc10000830492506010015b6305f5e1008310612330576305f5e100830492506008015b612710831061234457612710830492506004015b60648310612356576064830492506002015b600a83106108375760010192915050565b6001600160a01b03821661239157604051633250574960e11b815260006004820152602401610aca565b600061239f8383600061195f565b90506001600160a01b03811615610d7a576040516339e3563760e11b815260006004820152602401610aca565b6001600160e01b0319811681146118f157600080fd5b6000602082840312156123f457600080fd5b8135612111816123cc565b80356001600160a01b038116811461241657600080fd5b919050565b6000806040838503121561242e57600080fd5b612437836123ff565b946020939093013593505050565b60005b83811015612460578181015183820152602001612448565b50506000910152565b60008151808452612481816020860160208601612445565b601f01601f19169290920160200192915050565b6020815260006121116020830184612469565b6000602082840312156124ba57600080fd5b5035919050565b60006101208083526124d58184018d612469565b6001600160a01b038c166020850152838103604085015290506124f8818b612469565b60608401999099525050608081019590955260a085019390935260c0840191909152151560e08301521515610100909101529392505050565b60006020828403121561254357600080fd5b612111826123ff565b60008060006060848603121561256157600080fd5b61256a846123ff565b9250612578602085016123ff565b9150604084013590509250925092565b60208152600082516101208060208501526125a7610140850183612469565b915060208501516125c360408601826001600160a01b03169052565b506040850151848303601f190160608601526125df8382612469565b92505060608501516080850152608085015160a085015260a085015160c085015260c085015160e085015260e085015161010061261f8187018315159052565b90950151151593019290925250919050565b6020808252825182820181905260009190848201906040850190845b818110156126695783518352928401929184019160010161264d565b50909695505050505050565b8035801515811461241657600080fd5b6000806040838503121561269857600080fd5b6126a1836123ff565b91506126af60208401612675565b90509250929050565b634e487b7160e01b600052604160045260246000fd5b600067ffffffffffffffff808411156126e9576126e96126b8565b604051601f8501601f19908116603f01168101908282118183101715612711576127116126b8565b8160405280935085815286868601111561272a57600080fd5b858560208301376000602087830101525050509392505050565b6000806000806080858703121561275a57600080fd5b612763856123ff565b9350612771602086016123ff565b925060408501359150606085013567ffffffffffffffff81111561279457600080fd5b8501601f810187136127a557600080fd5b6127b4878235602084016126ce565b91505092959194509250565b600082601f8301126127d157600080fd5b612111838335602085016126ce565b6000602082840312156127f257600080fd5b813567ffffffffffffffff81111561280957600080fd5b611dd2848285016127c0565b6000806040838503121561282857600080fd5b823591506126af60208401612675565b60008060006060848603121561284d57600080fd5b833567ffffffffffffffff8082111561286557600080fd5b612871878388016127c0565b945061287f602087016123ff565b9350604086013591508082111561289557600080fd5b506128a2868287016127c0565b9150509250925092565b600080604083850312156128bf57600080fd5b6128c8836123ff565b91506126af602084016123ff565b600181811c908216806128ea57607f821691505b60208210810361290a57634e487b7160e01b600052602260045260246000fd5b50919050565b602080825260139082015272141bdcdd08191bd95cc81b9bdd08195e1a5cdd606a1b604082015260600190565b634e487b7160e01b600052601160045260246000fd5b818103818111156108375761083761293d565b602080825260129082015271506f7374206973206e6f742061637469766560701b604082015260600190565b80820281158282048414176108375761083761293d565b634e487b7160e01b600052601260045260246000fd5b6000826129ce576129ce6129a9565b500490565b808201808211156108375761083761293d565b6000602082840312156129f857600080fd5b5051919050565b600060018201612a1157612a1161293d565b5060010190565b60008251612a2a818460208701612445565b9190910192915050565b601f821115610d7a57600081815260208120601f850160051c81016020861015612a5b5750805b601f850160051c820191505b81811015612a7a57828155600101612a67565b505050505050565b815167ffffffffffffffff811115612a9c57612a9c6126b8565b612ab081612aaa84546128d6565b84612a34565b602080601f831160018114612ae55760008415612acd5750858301515b600019600386901b1c1916600185901b178555612a7a565b600085815260208120601f198616915b82811015612b1457888601518255948401946001909101908401612af5565b5085821015612b325787850151600019600388901b60f8161c191681555b5050505050600190811b01905550565b6001600160a01b0385811682528416602082015260408101839052608060608201819052600090612b7590830184612469565b9695505050505050565b600060208284031215612b9157600080fd5b8151612111816123cc565b60008351612bae818460208801612445565b835190830190612bc2818360208801612445565b01949350505050565b600082612bda57612bda6129a9565b500690565b7f68747470733a2f2f6170692e736f6e61642e78797a2f6e66742f000000000000815260008251612c1781601a850160208701612445565b91909101601a019291505056fea264697066735822122009b4c267dabcc9de4954f95f77f863cdd7677c5859b2158204260840c652334264736f6c63430008140033",
  "devdoc": {
    "errors": {
      "ERC721IncorrectOwner(address,uint256,address)": [
        {
          "details": "Indicates an error related to the ownership over a particular token. Used in transfers.",
          "params": {
            "owner": "Address of the current owner of a token.",
            "sender": "Address whose tokens are being transferred.",
            "tokenId": "Identifier number of a token."
          }
        }
      ],
      "ERC721InsufficientApproval(address,uint256)": [
        {
          "details": "Indicates a failure with the `operator`s approval. Used in transfers.",
          "params": {
            "operator": "Address that may be allowed to operate on tokens without being their owner.",
            "tokenId": "Identifier number of a token."
          }
        }
      ],
      "ERC721InvalidApprover(address)": [
        {
          "details": "Indicates a failure with the `approver` of a token to be approved. Used in approvals.",
          "params": {
            "approver": "Address initiating an approval operation."
          }
        }
      ],
      "ERC721InvalidOperator(address)": [
        {
          "details": "Indicates a failure with the `operator` to be approved. Used in approvals.",
          "params": {
            "operator": "Address that may be allowed to operate on tokens without being their owner."
          }
        }
      ],
      "ERC721InvalidOwner(address)": [
        {
          "details": "Indicates that an address can't be an owner. For example, `address(0)` is a forbidden owner in EIP-20. Used in balance queries.",
          "params": {
            "owner": "Address of the current owner of a token."
          }
        }
      ],
      "ERC721InvalidReceiver(address)": [
        {
          "details": "Indicates a failure with the token `receiver`. Used in transfers.",
          "params": {
            "receiver": "Address to which tokens are being transferred."
          }
        }
      ],
      "ERC721InvalidSender(address)": [
        {
          "details": "Indicates a failure with the token `sender`. Used in transfers.",
          "params": {
            "sender": "Address whose tokens are being transferred."
          }
        }
      ],
      "ERC721NonexistentToken(uint256)": [
        {
          "details": "Indicates a `tokenId` whose `owner` is the zero address.",
          "params": {
            "tokenId": "Identifier number of a token."
          }
        }
      ],
      "OwnableInvalidOwner(address)": [
        {
          "details": "The owner is not a valid owner account. (eg. `address(0)`)"
        }
      ],
      "OwnableUnauthorizedAccount(address)": [
        {
          "details": "The caller account is not authorized to perform an operation."
        }
      ],
      "ReentrancyGuardReentrantCall()": [
        {
          "details": "Unauthorized reentrant call."
        }
      ]
    },
    "events": {
      "Approval(address,address,uint256)": {
        "details": "Emitted when `owner` enables `approved` to manage the `tokenId` token."
      },
      "ApprovalForAll(address,address,bool)": {
        "details": "Emitted when `owner` enables or disables (`approved`) `operator` to manage all of its assets."
      },
      "BatchMetadataUpdate(uint256,uint256)": {
        "details": "This event emits when the metadata of a range of tokens is changed. So that the third-party platforms such as NFT market could timely update the images and related attributes of the NFTs."
      },
      "MetadataUpdate(uint256)": {
        "details": "This event emits when the metadata of a token is changed. So that the third-party platforms such as NFT market could timely update the images and related attributes of the NFT."
      },
      "Transfer(address,address,uint256)": {
        "details": "Emitted when `tokenId` token is transferred from `from` to `to`."
      }
    },
    "kind": "dev",
    "methods": {
      "approve(address,uint256)": {
        "details": "See {IERC721-approve}."
      },
      "balanceOf(address)": {
        "details": "See {IERC721-balanceOf}."
      },
      "getApproved(uint256)": {
        "details": "See {IERC721-getApproved}."
      },
      "isApprovedForAll(address,address)": {
        "details": "See {IERC721-isApprovedForAll}."
      },
      "name()": {
        "details": "See {IERC721Metadata-name}."
      },
      "owner()": {
        "details": "Returns the address of the current owner."
      },
      "ownerOf(uint256)": {
        "details": "See {IERC721-ownerOf}."
      },
      "renounceOwnership()": {
        "details": "Leaves the contract without owner. It will not be possible to call `onlyOwner` functions. Can only be called by the current owner. NOTE: Renouncing ownership will leave the contract without an owner, thereby disabling any functionality that is only available to the owner."
      },
      "safeTransferFrom(address,address,uint256)": {
        "details": "See {IERC721-safeTransferFrom}."
      },
      "safeTransferFrom(address,address,uint256,bytes)": {
        "details": "See {IERC721-safeTransferFrom}."
      },
      "setApprovalForAll(address,bool)": {
        "details": "See {IERC721-setApprovalForAll}."
      },
      "symbol()": {
        "details": "See {IERC721Metadata-symbol}."
      },
      "transferFrom(address,address,uint256)": {
        "details": "See {IERC721-transferFrom}."
      },
      "transferOwnership(address)": {
        "details": "Transfers ownership of the contract to a new account (`newOwner`). Can only be called by the current owner."
      }
    },
    "version": 1
  },
  "userdoc": {
    "kind": "user",
    "methods": {},
    "version": 1
  },
  "storageLayout": {
    "storage": [
      {
        "astId": 968,
        "contract": "contracts/Sonad.sol:Sonad",
        "label": "_name",
        "offset": 0,
        "slot": "0",
        "type": "t_string_storage"
      },
      {
        "astId": 970,
        "contract": "contracts/Sonad.sol:Sonad",
        "label": "_symbol",
        "offset": 0,
        "slot": "1",
        "type": "t_string_storage"
      },
      {
        "astId": 974,
        "contract": "contracts/Sonad.sol:Sonad",
        "label": "_owners",
        "offset": 0,
        "slot": "2",
        "type": "t_mapping(t_uint256,t_address)"
      },
      {
        "astId": 978,
        "contract": "contracts/Sonad.sol:Sonad",
        "label": "_balances",
        "offset": 0,
        "slot": "3",
        "type": "t_mapping(t_address,t_uint256)"
      },
      {
        "astId": 982,
        "contract": "contracts/Sonad.sol:Sonad",
        "label": "_tokenApprovals",
        "offset": 0,
        "slot": "4",
        "type": "t_mapping(t_uint256,t_address)"
      },
      {
        "astId": 988,
        "contract": "contracts/Sonad.sol:Sonad",
        "label": "_operatorApprovals",
        "offset": 0,
        "slot": "5",
        "type": "t_mapping(t_address,t_mapping(t_address,t_bool))"
      },
      {
        "astId": 2107,
        "contract": "contracts/Sonad.sol:Sonad",
        "label": "_tokenURIs",
        "offset": 0,
        "slot": "6",
        "type": "t_mapping(t_uint256,t_string_storage)"
      },
      {
        "astId": 8,
        "contract": "contracts/Sonad.sol:Sonad",
        "label": "_owner",
        "offset": 0,
        "slot": "7",
        "type": "t_address"
      },
      {
        "astId": 2274,
        "contract": "contracts/Sonad.sol:Sonad",
        "label": "_status",
        "offset": 0,
        "slot": "8",
        "type": "t_uint256"
      },
      {
        "astId": 3886,
        "contract": "contracts/Sonad.sol:Sonad",
        "label": "monadToken",
        "offset": 0,
        "slot": "9",
        "type": "t_contract(IERC20)909"
      },
      {
        "astId": 3893,
        "contract": "contracts/Sonad.sol:Sonad",
        "label": "minimumMonadHolding",
        "offset": 0,
        "slot": "10",
        "type": "t_uint256"
      },
      {
        "astId": 3896,
        "contract": "contracts/Sonad.sol:Sonad",
        "label": "nextTokenId",
        "offset": 0,
        "slot": "11",
        "type": "t_uint256"
      },
      {
        "astId": 3899,
        "contract": "contracts/Sonad.sol:Sonad",
        "label": "postIdCounter",
        "offset": 0,
        "slot": "12",
        "type": "t_uint256"
      },
      {
        "astId": 3913,
        "contract": "contracts/Sonad.sol:Sonad",
        "label": "posts",
        "offset": 0,
        "slot": "13",
        "type": "t_mapping(t_uint256,t_struct(TwitterPost)3876_storage)"
      },
      {
        "astId": 3919,
        "contract": "contracts/Sonad.sol:Sonad",
        "label": "hasVoted",
        "offset": 0,
        "slot": "14",
        "type": "t_mapping(t_address,t_mapping(t_uint256,t_bool))"
      },
      {
        "astId": 3924,
        "contract": "contracts/Sonad.sol:Sonad",
        "label": "voterRewards",
        "offset": 0,
        "slot": "15",
        "type": "t_mapping(t_address,t_struct(VoterReward)3883_storage)"
      },
      {
        "astId": 3928,
        "contract": "contracts/Sonad.sol:Sonad",
        "label": "tweetIdToPostId",
        "offset": 0,
        "slot": "16",
        "type": "t_mapping(t_string_memory_ptr,t_uint256)"
      },
      {
        "astId": 3933,
        "contract": "contracts/Sonad.sol:Sonad",
        "label": "creatorPosts",
        "offset": 0,
        "slot": "17",
        "type": "t_mapping(t_address,t_array(t_uint256)dyn_storage)"
      }
    ],
    "types": {
      "t_address": {
        "encoding": "inplace",
        "label": "address",
        "numberOfBytes": "20"
      },
      "t_array(t_uint256)dyn_storage": {
        "base": "t_uint256",
        "encoding": "dynamic_array",
        "label": "uint256[]",
        "numberOfBytes": "32"
      },
      "t_bool": {
        "encoding": "inplace",
        "label": "bool",
        "numberOfBytes": "1"
      },
      "t_contract(IERC20)909": {
        "encoding": "inplace",
        "label": "contract IERC20",
        "numberOfBytes": "20"
      },
      "t_mapping(t_address,t_array(t_uint256)dyn_storage)": {
        "encoding": "mapping",
        "key": "t_address",
        "label": "mapping(address => uint256[])",
        "numberOfBytes": "32",
        "value": "t_array(t_uint256)dyn_storage"
      },
      "t_mapping(t_address,t_bool)": {
        "encoding": "mapping",
        "key": "t_address",
        "label": "mapping(address => bool)",
        "numberOfBytes": "32",
        "value": "t_bool"
      },
      "t_mapping(t_address,t_mapping(t_address,t_bool))": {
        "encoding": "mapping",
        "key": "t_address",
        "label": "mapping(address => mapping(address => bool))",
        "numberOfBytes": "32",
        "value": "t_mapping(t_address,t_bool)"
      },
      "t_mapping(t_address,t_mapping(t_uint256,t_bool))": {
        "encoding": "mapping",
        "key": "t_address",
        "label": "mapping(address => mapping(uint256 => bool))",
        "numberOfBytes": "32",
        "value": "t_mapping(t_uint256,t_bool)"
      },
      "t_mapping(t_address,t_struct(VoterReward)3883_storage)": {
        "encoding": "mapping",
        "key": "t_address",
        "label": "mapping(address => struct Sonad.VoterReward)",
        "numberOfBytes": "32",
        "value": "t_struct(VoterReward)3883_storage"
      },
      "t_mapping(t_address,t_uint256)": {
        "encoding": "mapping",
        "key": "t_address",
        "label": "mapping(address => uint256)",
        "numberOfBytes": "32",
        "value": "t_uint256"
      },
      "t_mapping(t_string_memory_ptr,t_uint256)": {
        "encoding": "mapping",
        "key": "t_string_memory_ptr",
        "label": "mapping(string => uint256)",
        "numberOfBytes": "32",
        "value": "t_uint256"
      },
      "t_mapping(t_uint256,t_address)": {
        "encoding": "mapping",
        "key": "t_uint256",
        "label": "mapping(uint256 => address)",
        "numberOfBytes": "32",
        "value": "t_address"
      },
      "t_mapping(t_uint256,t_bool)": {
        "encoding": "mapping",
        "key": "t_uint256",
        "label": "mapping(uint256 => bool)",
        "numberOfBytes": "32",
        "value": "t_bool"
      },
      "t_mapping(t_uint256,t_string_storage)": {
        "encoding": "mapping",
        "key": "t_uint256",
        "label": "mapping(uint256 => string)",
        "numberOfBytes": "32",
        "value": "t_string_storage"
      },
      "t_mapping(t_uint256,t_struct(TwitterPost)3876_storage)": {
        "encoding": "mapping",
        "key": "t_uint256",
        "label": "mapping(uint256 => struct Sonad.TwitterPost)",
        "numberOfBytes": "32",
        "value": "t_struct(TwitterPost)3876_storage"
      },
      "t_string_memory_ptr": {
        "encoding": "bytes",
        "label": "string",
        "numberOfBytes": "32"
      },
      "t_string_storage": {
        "encoding": "bytes",
        "label": "string",
        "numberOfBytes": "32"
      },
      "t_struct(TwitterPost)3876_storage": {
        "encoding": "inplace",
        "label": "struct Sonad.TwitterPost",
        "members": [
          {
            "astId": 3859,
            "contract": "contracts/Sonad.sol:Sonad",
            "label": "tweetId",
            "offset": 0,
            "slot": "0",
            "type": "t_string_storage"
          },
          {
            "astId": 3861,
            "contract": "contracts/Sonad.sol:Sonad",
            "label": "creator",
            "offset": 0,
            "slot": "1",
            "type": "t_address"
          },
          {
            "astId": 3863,
            "contract": "contracts/Sonad.sol:Sonad",
            "label": "content",
            "offset": 0,
            "slot": "2",
            "type": "t_string_storage"
          },
          {
            "astId": 3865,
            "contract": "contracts/Sonad.sol:Sonad",
            "label": "timestamp",
            "offset": 0,
            "slot": "3",
            "type": "t_uint256"
          },
          {
            "astId": 3867,
            "contract": "contracts/Sonad.sol:Sonad",
            "label": "litCount",
            "offset": 0,
            "slot": "4",
            "type": "t_uint256"
          },
          {
            "astId": 3869,
            "contract": "contracts/Sonad.sol:Sonad",
            "label": "shitCount",
            "offset": 0,
            "slot": "5",
            "type": "t_uint256"
          },
          {
            "astId": 3871,
            "contract": "contracts/Sonad.sol:Sonad",
            "label": "totalTips",
            "offset": 0,
            "slot": "6",
            "type": "t_uint256"
          },
          {
            "astId": 3873,
            "contract": "contracts/Sonad.sol:Sonad",
            "label": "verified",
            "offset": 0,
            "slot": "7",
            "type": "t_bool"
          },
          {
            "astId": 3875,
            "contract": "contracts/Sonad.sol:Sonad",
            "label": "active",
            "offset": 1,
            "slot": "7",
            "type": "t_bool"
          }
        ],
        "numberOfBytes": "256"
      },
      "t_struct(VoterReward)3883_storage": {
        "encoding": "inplace",
        "label": "struct Sonad.VoterReward",
        "members": [
          {
            "astId": 3878,
            "contract": "contracts/Sonad.sol:Sonad",
            "label": "points",
            "offset": 0,
            "slot": "0",
            "type": "t_uint256"
          },
          {
            "astId": 3880,
            "contract": "contracts/Sonad.sol:Sonad",
            "label": "nftCount",
            "offset": 0,
            "slot": "1",
            "type": "t_uint256"
          },
          {
            "astId": 3882,
            "contract": "contracts/Sonad.sol:Sonad",
            "label": "hasVoted",
            "offset": 0,
            "slot": "2",
            "type": "t_bool"
          }
        ],
        "numberOfBytes": "96"
      },
      "t_uint256": {
        "encoding": "inplace",
        "label": "uint256",
        "numberOfBytes": "32"
      }
    }
  }
}